:020000040800F2
:100000005006002001010008273B00083B32000891
:10001000253B000801100008AD400008000000006A
:10002000000000000000000000000000513B00083C
:100030000310000800000000293B0008533B0008A3
:100040001B0100081B0100081B0100081B01000820
:100050001B0100081B0100081B0100081B01000810
:100060001B0100081B0100081B0100081B01000800
:100070001B0100081B0100081B0100081B010008F0
:100080001B0100081B010008190E00081B010008D5
:100090001B0100081B0100081B0100081B010008D0
:1000A0001B0100081B0100081B0100081B010008C0
:1000B000D13B00081B0100081B0100081B010008C0
:1000C0001B0100081B0100081B0100081B010008A0
:1000D0001B0100081B0100081B010008A1400008CB
:1000E0001B0100081B0100081B010008DFF80CD0F1
:1000F00000F08AFC004800474D4A000850060020E6
:100100000648804706480047FEE7FEE7FEE7FEE7B1
:10011000FEE7FEE7FEE7FEE7FEE7FEE7CF3B00086F
:10012000ED000008202A04DB203A21FA02F0002129
:10013000704721FA02F3D040C2F1200291400843F7
:1001400019467047D2B201E000F8012B491EFBD2DC
:1001500070470022F6E710B513460A4604461946D2
:10016000FFF7F0FF204610BDF0B480EA0102D40F83
:100170004200B2EB410F02D20246084611464A0045
:1001800042D0C30DDDB2C1F3C752AD1A202D35DA0E
:10019000C1F3160141F4000204B15242C5F1200638
:1001A00002FA06F12A411044B3EBD05F23D0C4B168
:1001B000012DA0EBC35009DCF0BC4FF0004202EA75
:1001C000C352DBB200F5000000F0F3BA400000F1CA
:1001D000807000EBC350A0F1807040EAD1704900FC
:1001E00009E0490841EAC071A0EBC35000F50000E6
:1001F000400800EBC350F0BC00F0D2BA61420122CB
:1002000002EB4101001BF6E7F0BC704781F00041B2
:10021000AAE780F00040A7E780EA010210B502F0EB
:100220000043400022D04A001FD0010E01EB1261B2
:10023000C0F35600C2F3560240F4000042F400023C
:10024000A0FB022000047F39140400D0401C50EAB7
:10025000124001D44000491EC2B20C0604EBD0107B
:10026000401C4008802A02D003E0002010BD20F08E
:100270000100002900DA0020184310BD30B480EAE4
:10028000010202F0004530F0004221F0004013D09E
:1002900090B1C30DD40DC2F31601C0F31600E41AD9
:1002A00041F4000140F400027D34914201D3641C0A
:1002B00000E04900002C02DA30BC002070474FF407
:1002C00000000023914201D3891A034340084FEAFA
:1002D0004101F7D151B1914202D14FF0004105E007
:1002E00002D24FF0010101E06FF0010103EBC450B5
:1002F000284430BC00F054BA420005D0C0F3C752C5
:100300005242914201DC0020704700EBC15070471F
:100310002DE9FE4F804681EA0300C00F0C46009095
:1003200021F0004123F00045B8EB0200A94105D2BD
:100330004046214690461C460B46024623F00040AC
:10034000104347D0270DC7F30A00C3F30A510290A8
:10035000401A019040286BDAC3F3130040F4801B6D
:100360000098924620B10023D2EB030A63EB0B0BFB
:1003700001985946C0F14002504600F0A2F90646E5
:100380000D4650465946019A00F0AAF910EB0800B4
:100390006141002487EA115284EAE7731A4340D08E
:1003A000009A62B3019A012A4FEA075215DC001B3A
:1003B00061EB02014FF0004202EA0752CDE9004230
:1003C000001C41F5801132462B4600F02FFA03B095
:1003D000BDE8F08F40462146F9E7001B61EB0201C2
:1003E000001C41F5801300185B412018A2F500178E
:1003F00047EB030140EAD570B6196D4111E06D0875
:100400004FEA360645EAC0754FEA0752001B61EB1A
:100410000201001C41F5801149084FEA3000001923
:10042000514132462B4603B0BDE8F04F00F0EFB922
:100430000098012240000023D0EB020263EBE0733E
:10044000009821464FEAE074B8EB000061EB04012C
:10045000E9E783F000435BE781F0004158E72DE9CD
:10046000FE4F81EA030404F0004421F000410094AF
:100470004FF0000B23F0004350EA01045ED052EA33
:1004800003045BD0C3F30A54C1F30A552C44A4F20D
:10049000F3340194A0FB0254C1F3130141F4801121
:1004A000C3F3130343F4801301FB024400FB034E28
:1004B000840A970A44EA815447EA8357A4FB0768F1
:1004C00002958D0A05FB07854FEA932C04FB0C541B
:1004D0002705029D4FEA065847EA1637B5EB08058F
:1004E0006EEB070C870E920E47EA811742EA8312E1
:1004F000A7FB0201B6EB0B0164EB00042B0D43EAF2
:100500000C335E1844EB1C50DA465146E7FB0201FF
:10051000C5F313044FEA0B3343EA14534FEA043292
:10052000019C43EA0603A4F10C040294009CCDE96B
:1005300000B400F07BF903B0BDE8F08F0020014665
:10054000F9E796230022114600F033B90EB540F2C8
:10055000334102910021CDE900110A460B4600F01B
:1005600065F903B000BD20F00040C10DC0F31600D6
:1005700040F400007F2901DA00207047962903DC4F
:10058000C1F19601C8407047963988407047C1F361
:100590000A5210B5C1F3130140F2FF3341F4801148
:1005A0009A4201DA002010BD40F233439A42A2F28F
:1005B000334203DC5242FFF7B5FD10BD904010BD41
:1005C00000F0004230F000400AD0C10D01F560712A
:1005D000C0F3160042EA0151C208400711437047B8
:1005E00000200146704701F0004330B421F0004183
:1005F00050EA010206D00A0DA2F56072C1F31301A0
:10060000002A02DC30BC00207047440F44EAC104D9
:10061000C100E01830BC00EBC25000F0C1B80000CF
:10062000002801DBC0F10040002901DBC1F10041DD
:100630008842704730B50B46014600202022012435
:1006400009E021FA02F59D4205D303FA02F5491BA0
:1006500004FA02F52844151EA2F10102F1DC30BDB6
:100660002DE9F05F0546002092469B4688460646E7
:10067000814640241BE02846414647462246FFF774
:1006800051FD53465A46C01A914110D3114618469F
:10069000224600F016F82D1A67EB01084F46224655
:1006A0000120002100F00DF817EB00094E41201E3B
:1006B000A4F10104DFDC484631462A464346BDE842
:1006C000F09F202A04DB203A00FA02F10020704754
:1006D0009140C2F1200320FA03F319439040704780
:1006E000202A06DBCB17203A41FA02F043EAE073F6
:1006F00006E041FA02F3D040C2F1200291400843E3
:10070000194670470FB4002300B589B00CA90091B9
:100710000B996FF00042CB601E4B06931E4B079364
:100720000423CDE901321D4A089202466B4600209F
:1007300000F016FA09B05DF814FB70B586B00646F5
:100740004FF0FF300091CDE90101002015460C4625
:1007500004903246694604A8FFF7D4FF0246049885
:10076000211825B108B1084600E020462860049809
:1007700000280DD0002A02DD0098884208D0081B0E
:100780000094CDE901043246694604A8FFF7BAFF98
:1007900006B070BD990D0008B70D00082D0A0008BD
:1007A0000029A8BF7047401C490008BF20F0010085
:1007B000704710B4B0FA80FC00FA0CF050EA010463
:1007C00004BF10BC704749B1CCF1200421FA04F4F5
:1007D00011FA0CF118BF012121430843A3EB0C01CE
:1007E000CB1D4FEA00614FEA102042BF002010BC31
:1007F000704700EBC35010440029A4BF10BC7047E1
:10080000401C490008BF20F0010010BC704710B523
:10081000141E73F1000408DA401C41F10001921823
:100820005B411A4301D120F0010010BD2DE9F04DCC
:1008300092469B4611B1B1FA81F202E0B0FA80F221
:1008400020329046FFF73DFF04460F4640EA0A007B
:1008500041EA0B0153465A46084313D0114653EA66
:10086000010019D0C8F140025046FFF75BFC054675
:100870000E46504659464246FFF723FF084305D02F
:10088000012004E020463946BDE8F08D00200543F4
:1008900046EAE0762C4337430A986305E40AA0EB66
:1008A00008000022FD0A44EA47540A3002D500201D
:1008B0000146E9E7010510196941DDE9084500191C
:1008C0006941BDE8F04DA2E72DE9F04D81EA03044E
:1008D00004F0004B21F0004514464FF0000A23F0CD
:1008E000004150EA050220D054EA01021DD0C5F3B0
:1008F0000A570246C5F31303C1F31300C1F30A56A6
:1009000040F4801543F48013A7EB0608101BD6466D
:1009100008F2FD3873EB050002D308F1010801E08D
:1009200092185B41B8F1000F03DA00200146BDE8E0
:10093000F08D00204FF48011064684460EE0171B10
:1009400073EB050705D3121B63EB050306434CEA63
:10095000010C49084FEA300092185B4150EA010748
:10096000EDD152EA030012D082EA040083EA0501C5
:10097000084305D0101BAB4106D20122002306E03C
:1009800000224FF0004302E06FF0010253101AEB17
:1009900006004CEB085110EB0A0041EB0B01BDE8DF
:1009A000F04DFFF734BFC1F30A52C1F3130140F217
:1009B000FF3341F480119A4202DA00200146704769
:1009C00040F233439A42A2F2334202DC5242FFF732
:1009D000A9BBFFF776BE000030B5041E71F100041C
:1009E00004DB4FF00044404264EB0101141E73F13C
:1009F000000405DB1C464FF00043524263EB040346
:100A0000994208BF904230BD064C074D06E0E068B1
:100A100040F0010394E8070098471034AC42F6D345
:100A2000FFF768FB584E0008784E0008C0B24FF43C
:100A3000F05100F0D1B900002DE9FF4F087883B0E4
:100A40009946FF2805D0491C2D2804D000240020F9
:100A500008E000200BE00124F9E700EB800003EB45
:100A60004000491C0B78FF2BF7D104B14042002312
:100A70000293147819461D462D2C01D02B2C04D13D
:100A8000521C2D2C13D000240294AA461478FF2C5B
:100A90000FD00A25A3FB057801FB05814FF0000C60
:100AA00003FB0C11521CE3194AEB0101EEE7012490
:100AB000EAE7814453EA010002D019F5C87F06DA5B
:100AC00003980021C0E9001107B0BDE8F08F0025B0
:100AD000AE4E2F46DFF8B882184600F091F9CDE906
:100AE0000001B9F1000002DAC9F1000400E0044697
:100AF0000023A74A1AEB030B42EB045A12E0E0076B
:100B000007D02A46334638464146FFF7A8FC074639
:100B100088462A46334610461946FFF7A0FC05468C
:100B20000E466410002CEAD1DDE90001B9F1000F96
:100B30005A46534606DAFFF7C7FE3A464346FFF7E2
:100B4000C3FE05E0FFF78BFC3A464346FFF787FC00
:100B5000029A0AB181F00041039AC2E90001B3E7A9
:100B60002DE9FF4F1F468DB0D7E901464FF0FF3802
:100B70002E2045464FF000090B90B9696D1C0E9868
:100B80008847396A824688470028F6D1BAF1FF3F84
:100B90000AD024F4D064002E11DDBAF12B0F08D056
:100BA000BAF12D0F0BD102E0404611B08DE744F4AD
:100BB0008064B9696D1C0E9888478246761E694626
:100BC000600501D52D2000E02B208DF8000001F1FB
:100BD000010B0DF1200809E0B9696D1C0E988847DA
:100BE00082460F9844F40074761E0560002E02DDE4
:100BF000BAF1300FF0D00B998A453ED144F0800411
:100C000006E00F99681CA9F1010944F4007408601A
:100C1000B9696D1C761E0E98884782463028F0D040
:100C20002BE00B998A4505D1200603D444F08004BB
:100C3000761E18E0504603F049FB08B30DF113018E
:100C4000761E44F400748B4508D2AAF130000BF8EC
:100C5000010B200607D5A9F1010003E0200602D40C
:100C600009F101008146A00502D50F99681C0860B2
:100C7000B9696D1C0E9888478246002ED1DC53E07E
:100C8000002E51DDBAF1650F02D0BAF1450F4BD1FC
:100C9000A00549D5B9696D1C24F44074761E0E98E0
:100CA00088478246002E0CDD2B2804D0BAF12D0F88
:100CB00007D144F48074B9696D1C0E988847824648
:100CC000761EE00501D52D2100E02B2108F8011B3F
:100CD000CDF82C8021E00DF12901761E44F400743A
:100CE00088450CD2AAF1300010F0FF0088F800000F
:100CF00002D10B99884509D908F1010806E0E00501
:100D000001D5244801E042F20F708146B9696D1C9B
:100D10000E98884782460F980560002E04DD5046E5
:100D200003F0D4FA0028D6D1F9690E988847FF203D
:100D30008BF8000088F800000020069007904B46D2
:100D40006A4608A906A8FFF777FEA00502D46FF04F
:100D500001002AE714F0240F0AD0E00714D1DDE9DE
:100D600006123868031D3B600068C0E900120BE002
:100D7000DDE90601FFF737FC0146E00704D13868DA
:100D8000021D3A600068016028460EE7000014402A
:100D90000000F03FF1D8FFFF426842B1016811F84E
:100DA000013B23B1521EC0E90012184670470121D1
:100DB000C160881E704742685AB1C368016843B970
:100DC00083688B4205D0491E521CC0E900120020E6
:100DD00070474FF0FF3070477F2801D9002208E0AC
:100DE000064A02EB5002C007127800D1120902F045
:100DF0000F0201209040084070470000184E000884
:100E00000EB540F2334202920022CDE90022134691
:100E1000FFF70CFD03B000BD10B5044800F06BFBFC
:100E2000BDE81040024800F066BB0000C000002092
:100E3000F000002070B5044600688168C943C90706
:100E400017D1816821F00101816000F017FE05468D
:100E50000AE000BF00F012FE401B022804D92068FF
:100E60008068C043C00706D020688068C043C007C0
:100E7000F0D0002070BDA06A40F01000A062E06ACF
:100E800040F00100E062012070BD0000F8B50026CE
:100E90000446009600688168C943C9072DD081685F
:100EA00041F001018160164816490068B0FBF1F07D
:100EB00000E0401E00900028FBD100F0DFFD054659
:100EC00016E000BF00F0DAFD401B022810D92068B0
:100ED0008068C043C0070BD0A06A40F01000A06239
:100EE000E06A40F00100E06284F824600120F8BD6F
:100EF00020688068C043C007E4D10020F8BD00002E
:100F00004400002040420F001CB504460C208DF820
:100F10000400012301AA6C21206803F0D1F8022308
:100F20006A466C21206803F0C2F8BDF8000040BAA0
:100F30001CBD00002DE9F05F0446FFF7E5FFFFF759
:100F400000FB804600F09AFD0646A068301AFFF7C5
:100F5000F8FA2549FFF792F924490546884240DB13
:100F600067686FF00B013846FFF7C6F9DFF880902D
:100F70004946FFF751F9E1688A46FFF7F5F88346DD
:100F800039464046FFF742F94FF40002904201DB38
:100F9000014601E080F00041164B994208DD904285
:100FA00001DB154900E049465046FFF7DDF8E060F7
:100FB0006FF00B014046FFF79FF94946FFF72CF908
:100FC000E168FFF7D1F859462061FFF71FF929467C
:100FD000FFF754F90146094802F0C4FB6061C4E917
:100FE0000186BDE8F09F000000007A4417B7513831
:100FF000DB0FC940CDCC4C45DB0FC9C068000020D9
:10100000FEE7704772B6FEE7F8B500250446009586
:1010100090F8240001280BD0012084F824002046F9
:10102000FFF708FF2046FFF731FF060002D050E02F
:101030000220F8BDA06A20F4885040F00200A062AF
:10104000022001F069F825490968B1FBF0F0400081
:1010500000E0401E00900028FBD12068816841F02C
:101060000801816000F00AFD074608E000F006FD77
:10107000C01B0A2803D920688068000715D420689F
:1010800080680007F2D42068816841F00401816023
:1010900000F0F4FC074612E000F0F0FCC01B0A2848
:1010A0000DD920688068400709D5A06A20F00200A9
:1010B00040F01000A06284F824500120F8BD2068A0
:1010C00080684007E8D4A06A20F0020040F00100E8
:1010D000A06284F824503046F8BD0000440000208F
:1010E000F8B50022009290F8244083681646012C3F
:1010F0001CD0012480F82440D3B14D680B691F2413
:101100009D4226D81F055B1BC3F103030D6803EB4B
:1011100083039D40A7F580172F439C40036844F448
:1011200040159C6BAC4327439F631EE00220F8BD33
:101130004B68012B05D0826A42F0200282620122B4
:1011400013E003689C6B0D686FF3150444EAC53423
:101150000AE05B1BC3F1030303EB83039C400368BA
:1011600044F440159C6BAC439C6303689C68E44367
:10117000E40706D09C6847F20105AC438D692C4317
:101180009C604B7D012B08D18B69B3F5E04F08D0F3
:10119000826A42F02002826201220B7D012B06D07E
:1011A0000CE003685C6844F480645C60F5E74B7DA8
:1011B000A3B1826A42F02002826201220B680724F6
:1011C00005680A2B10D3EF680A3B03EB43039C40EE
:1011D000A7438C689C402743EF600EE003685C687F
:1011E00044F480545C60E9E72F6903EB43039C40BF
:1011F000A7438C689C4027432F610B68102B01D0BC
:10120000112B04D103689C6844F400049C604B6873
:10121000012B10D0022B16D0032B03681BD01C6AA5
:10122000CD686FF30B042C431C620B68102B19D094
:10123000112B17D037E003685C69CD686FF30B049E
:101240002C435C61F1E703689C69CD686FF30B0484
:101250002C439C61E9E7DC69CD686FF30B042C43F8
:10126000DC61E2E7124C0368A34217D19C682402B8
:1012700019D49C6844F400049C600968102912D1B8
:101280000C490D4B0968B1FBF3F101EB81014900F9
:1012900000E0491E00910029FBD104E0816A41F081
:1012A00020018162012280F824601046F8BD000010
:1012B000002401404400002040420F0070B5006847
:1012C0000D49884217D101210C4800F01DF8044651
:1012D00001210B4800F018F80546204602F0C0F93D
:1012E0000446284602F0BCF92146BDE8704002469B
:1012F000044802F003BA70BD00240140C000002081
:10130000F0000020940000200068022909D0032981
:1013100005D0042901D0C06B7047806C7047406CC9
:101320007047006C7047000070B5044690F82400C8
:1013300001280DD0012084F824002046FFF7A6FDE7
:1013400001004FF0000005D084F82400084670BD6D
:10135000022070BDA26A42F201039A4342F4805215
:10136000A262194A2568194B95421AD11E6816F4D3
:10137000702F16D0A66A46F48016A662A66AF605F5
:1013800000D4E06284F824006FF004002860206834
:1013900044686405DAD48468C4F30234072C04D0AA
:1013A00009E0A66A26F48016E7E7904208D11A6899
:1013B00012F4702F04D0826842F400428260C5E7C4
:1013C000826842F40212F9E7002801400424014037
:1013D00070B5044690F8240001280DD0012084F84F
:1013E00024002046FFF752FD01004FF0000005D019
:1013F00084F82400084670BD022070BDA26A42F243
:1014000001039A4342F48052A2621C4A25681C4B95
:1014100095421FD11E6816F4702F1BD0A66A46F4A1
:101420008016A662A66AF60500D4E06284F824005D
:101430006FF0040028602068456845F0800545602D
:10144000206844686405D5D48468C4F30234072C4A
:1014500004D009E0A66A26F48016E2E7904208D19B
:101460001A6812F4702F04D0826842F4004282603D
:10147000C0E7826842F40212F9E700000028014048
:101480000424014070B58CB00E460446002530217E
:101490006846FEF75EFE94F82400012818D001206B
:1014A00084F824001148009020688168C943C90766
:1014B00011D000998968C943C9070CD00C498842EA
:1014C00009D14168326821F470211143416007E07D
:1014D00002200CB070BDA06A40F02000A06201257F
:1014E000002084F824002846F3E70000002801408B
:1014F00000240140704770B50446006806684568DE
:10150000A90625D5B10723D5A16AC90603D4A16AC6
:1015100041F40071A1628168C1F34241072910D1F1
:10152000217B71B9416821F020014160A06A20F45B
:101530008070A062A06AC00403D4A06A40F00100D9
:10154000A0622046FFF7D6FF21686FF01200086006
:1015500028062ED570072CD5A06AC00603D4A06A31
:1015600040F40050A06220688168C1F3023107296D
:1015700009D04168490515D48168C1F34241072962
:1015800010D1217B71B9416821F080014160A06ACE
:1015900020F48050A062A06AC00503D4A06A40F085
:1015A0000100A0622046FFF789FE21686FF00C0061
:1015B000086068060CD5F0070AD0A06A40F48030B5
:1015C000A062204600F094F821686FF001000860E6
:1015D00070BD00002DE9F0414FF0000704003D46CA
:1015E0007ED0A06A002628B9E66284F824602046EE
:1015F00000F080F82046FFF71DFCA16AC90600D460
:1016000020B1A06A40F01000A06269E0A16A21F454
:10161000885141F00201A1626268E169237B0A43BB
:1016200047EA43010A43A1684FF48077B94209D0E1
:10163000012907D05FF0000194F814C0BCF1010F3C
:1016400002D00AE03946F7E7F3B1A36A43F020037A
:10165000A362E36A43F00103E3622368D3F804C0A2
:101660002CF4694C4CEA010CC3F804C021688B6867
:10167000DFF870C003EA0C0313438B60A168B94222
:101680000BD0012909D00CE0DFF85CC0A3690CEB9A
:1016900043330B4343F40061DFE7218A0D05A5F5D1
:1016A00080152168CB6A23F470032B43CB62216839
:1016B00089680E4B1940914208D1E662A16A21F077
:1016C000020141F00101A162BDE8F081A06A20F0B1
:1016D000020040F01000A062E06A40F00100E06209
:1016E0000120F1E7FDF7E1FF00E0FFFFFE0E1FFF25
:1016F0007047000010B586B0002100910191029161
:1017000003911E4C03681E4903221E48A34211D1B7
:101710008B6943F400738B618B6903F4007304934A
:101720008B6943F004038B61896901F00401049122
:10173000012113E0144CA3421DD18B6943F4806353
:101740008B618B6903F4806304938B6943F004031A
:101750008B61896901F0040104910221CDE9001235
:10176000694600F095F800220121122000F0A2FC49
:10177000122000F091FC06B010BD000000240140D2
:1017800000100240000801400028014010B590F808
:1017900021100022022905D00421816380F8202035
:1017A000012010BD01680B6823F00E030B60016877
:1017B0000B6823F001030B6090F84030C46B0121EB
:1017C00001FA03F3636080F8211080F820201046AE
:1017D00010BD000010B590F821100024022903D09C
:1017E0000421816301243DE001680A6822F00E02B1
:1017F0000A6001680A6822F001020A601A4A016858
:10180000914201D1012121E0174A1432914201D1C4
:1018100010211BE0144A2832914201D1891515E0AC
:10182000114A3C32914201D189140FE00E4A5032E4
:10183000914202D14FF4803108E00B4A6432914268
:1018400002D14FF4801101E04FF08071064A083A4E
:101850005160012180F82110002180F82010416B97
:1018600001B18847204610BD0800024070B504460B
:1018700000F004F90546601C02D0044800780444D6
:1018800000F0FCF8401BA042FAD370BD38000020E5
:101890002DE9F84FDFF8B8910024A9F1040B234695
:1018A0000F2709F1040AABF1040EC9E00125A54098
:1018B0002A40AA427DD1674ED1F804C0ACEB06089D
:1018C000B44532D014DCBCF1030F3AD009DCBCF1D2
:1018D000000F2AD0BCF1010F1CD0BCF1020F31D196
:1018E0001DE0BCF1110F17D0BCF1120F2AD119E085
:1018F000B8F5881F19D006DCB8F5803F15D0B8F5CB
:10190000801F1FD111E0B8F5001F0ED0B8F5041FDD
:1019100018D10AE0CB6815E0CB681B1D12E0CB683C
:1019200008330FE0CB680C330CE08B682BB1012B34
:101930004FF0080303D0456104E0042302E0056191
:1019400000E00023FF2A01D8064601E000F104066A
:101950004FEA840501D9A5F12005D6F8008007FAE1
:1019600005FC28EA0C0803FA05F548EA0508C6F85C
:1019700000804D68ED0062D5374DAE6946F0010636
:10198000AE61AD6924F0030605F001050095334D05
:1019900006EB050CDCF80850A607360F07FA06F828
:1019A00025EA0805DFF8B880404503D14FF000086C
:1019B00017E044E0DFF8AC80404502D14FF0010869
:1019C0000FE0DFF8A480404502D14FF0020808E0A4
:1019D000DFF89880404502D14FF0030801E04FF056
:1019E000040808FA06F848EA0508CCF808804D68AB
:1019F000D9F80060ED024D4601D5164300E096434C
:101A00002E604D68DAF80060AD02554601D51643E8
:101A100000E096432E604D68DBF80060AD035D4644
:101A200001D5164300E096432E604D68DEF8006055
:101A3000ED03754601D5164300E096432E60641C05
:101A40000D682A46E5407FF431AFBDE8F88F00000D
:101A50000804014000001110001002400000014085
:101A600000080140000C014000100140001401403A
:101A70000AB1016170470904FBE700000148806872
:101A8000704700003800002070B5040025D094F89D
:101A90003D00002520B984F83C50204600F076FA3D
:101AA000242084F83D002068016821F001010160D4
:101AB0002068016841F4004101602068016821F458
:101AC0000041016000F086FC4D4A6168914201D8F6
:101AD0004C4900E04C49884201D2012070BD4B497D
:101AE0002368B0FBF1F15E6826F03F060E435E60AE
:101AF0006368934206D94FF4967359434FF47A734F
:101B0000B1FBF3F12368491C1E6A26F03F063143FE
:101B100019626168914210D84900401EB0FBF1F291
:101B2000521CC2F30B02042A01D2042022E0B0FBB3
:101B3000F1F0401CC0F30B001CE0A268F2B301EB13
:101B4000C10303EB0116431EB3FBF6F35B1C43F426
:101B500080431B0549D092B301EBC10202EB011196
:101B6000401EB0FBF1F0401CC0F30B0040F480407D
:101B700040F400402168CA694CF6FF739A43104351
:101B8000C861D4E9071001432068026822F0C0024E
:101B900011430160D4E9030101432068826848F2DF
:101BA000FF339A4311438160D4E90501084321685A
:101BB000CA6822F0FF021043C86001E00EE016E0A0
:101BC0002068016841F0010101602564202084F84B
:101BD0003D00256384F83E50002070BD01EB4106B6
:101BE000431EB3FBF6F35B1CB3E70120C2E701EB36
:101BF0004101401EB0FBF1F0401CC0F30B00B7E701
:101C0000A086010080841E0000093D0040420F00B4
:101C10002DE9F84F0025DDF82890984617468A46AA
:101C200004460095FFF72AFF064694F83D00202859
:101C30007AD11923012286492046009601F006FC3C
:101C40000028F5D194F83C0001286DD0012084F8DB
:101C50003C0020680168C90703D1016841F0010117
:101C600001602068016821F400610160222084F88D
:101C70003D00102084F83E0025646762A4F82A80A5
:101C8000608D20857348E06233464A4651462046BF
:101C900001F0ECFA00287CD1208DDFF8BC812027F0
:101CA00068B1012814D00228206801681ED041F4D0
:101CB000806101602068416980690090BBE0206814
:101CC000416981690091016841F400710160B2E0ED
:101CD0002068016821F48061016072B62068416962
:101CE00081690091016841F400710AE041F40061EA
:101CF000016072B62068416981690091016821F430
:101D00008061016062B696E0032865D801280CD096
:101D100002284B464FF000024146204600960BD069
:101D200001F094FBA8BB0CE090E032464946204607
:101D300001F032FC68BB71E001F088FB48BB72B671
:101D400033E02068016821F48061016072B6206888
:101D50000069616A0870606A401C6062208D401EE4
:101D60002085608D401E60853C4846F2A8110068C1
:101D7000B0FBF1F0C0EBC00000EB80000090401E13
:101D8000009007D020684069C04340070DD50098F7
:101D9000F5E727E044F8305F6773A573206940F0EA
:101DA0002000206162B625731CE02068016841F4C0
:101DB0000071016020680069616A0870606A401CF7
:101DC0006062218D491E2185618D491E618562B643
:101DD00021680969017025E032464946204601F034
:101DE000DBFB10B10120BDE8F88F20680069616A53
:101DF0000870606A401C6062208D401E81B221859F
:101E0000608D401E608520684269D243520712D41B
:101E1000032903D1016821F4806101602068006911
:101E2000616A0870606A401C6062208D401E2085D7
:101E3000608D401E6085208D00287FF465AF84F89A
:101E40003D7084F83E5084F83C50CCE70220CAE74D
:101E5000020010000000FFFF040001004400002009
:101E60002DE9F84F1F4690468A460446DDF8289033
:101E7000FFF704FE054694F83D0020287FD1192382
:101E8000012240492046009501F0E0FA002876D171
:101E900094F83C00012872D0012084F83C002068AE
:101EA0000168C90703D1016841F0010101602068A0
:101EB000016821F400610160212084F83D001020B8
:101EC00084F83E0000262664C4F824806785608D6F
:101ED00020852D48E0622B464A465146204601F0B7
:101EE0003BFA90B9206841698069009036E02A4643
:101EF0004946204601F088FB50B1206C042804D1EB
:101F00002068016841F4007101600120BDE8F88F8C
:101F1000606A216800780861606A401C6062618DB7
:101F2000491E6185218D491E89B221852268536928
:101F3000DB435B070BD451B100781061606A401C31
:101F40006062608D401E6085208D401E20852A467F
:101F50004946204601F04EFA0028CED1208D0028B7
:101F6000C5D154F83D0B016841F400710160202097
:101F700004F81E09E67766770020C7E7FFE702202E
:101F8000C4E70000020010000000FFFF10B586B09B
:101F90000021009101910291039100680F4988424C
:101FA0001AD10F4CA06940F00800A061A0696946F1
:101FB00000F008000490C02000901220019003203F
:101FC00003900848FFF764FCE06940F40010E0610A
:101FD000E06900F40010049006B010BD0054004009
:101FE00000100240000C0140024881680278114450
:101FF0008160704738000020074810B5016841F043
:1020000010010160032000F075F80F2000F006F8C1
:1020100000F024F8002010BD0020024070B50D4DE6
:1020200004464FF47A712878B1FBF0F00A49096848
:10203000B1FBF0F000F0A4FB48B9102C07D200224D
:102040002146501E00F036F800206C6070BD012063
:1020500070BD000038000020440000200C4808B586
:10206000816941F001018161816901F00101009103
:10207000C16941F08051C161C06900F08050009099
:102080000448416821F0E06141F00071416008BD01
:102090000010024000000140002809DB00F01F0290
:1020A000012191404009800000F1E020C0F80011BA
:1020B00070470000F0B40E4B1B680C46C3F30223BC
:1020C000C3F10705042D00D90425191D072901D2E4
:1020D000002300E0DB1E012606FA05F1491E21401F
:1020E00099409E40761E16403143F0BC02F000B885
:1020F0000CED00E0064900F0070208684FF6FF0308
:10210000184040EA0220034A10430860704700006C
:102110000CED00E00000FA0510B501460020234C4C
:10212000012922D0022939D010291DD161682268E5
:10213000D20119D51E48C1F38342C903805C0AD578
:1021400061681B4AC1F34041921E515C194AB2FBBF
:10215000F1F1484301E0184948436168490203D45A
:1021600040000321B0FBF1F010BD226AC2F301214F
:10217000012903D1920701D5C80310BD022905D159
:10218000626A920702D549F6404010BD0329FCD18E
:1021900021688903F9D54FF2244010BD00F02AF9D7
:1021A0006168C1F38131491C4900DBE7001002403E
:1021B000F04D000800127A0000093D002DE9F843B7
:1021C00005460078354CC00754D0E0690026C000B1
:1021D00008D4E06940F08050E061E069012600F039
:1021E000805000902E480168C90512D401688046CD
:1021F00041F480710160FFF741FC074605E000BF34
:10220000FFF73CFCC01B642823D8D8F80000C005A9
:10221000F6D5206A10F4407021D0A98801F44071ED
:1022200081421CD0206A1F49012220F440700A60BC
:1022300000220A602062C00711D0FFF71FFC07468A
:1022400041F2883808E000BFFFF718FCC11B414588
:1022500002D90320BDE8F883206A8007F4D5206AFC
:10226000696820F44070084320621EB1E06920F0E4
:102270008050E0612878800705D56068A96820F45F
:102280004040084360602878C00605D56068E9686A
:1022900020F48000084360600020DBE7001002406B
:1022A00000700040400442422DE9F0470F4605000F
:1022B00061D0434E306800F00700B84209D2306860
:1022C00020F0070038433060306800F00700B84263
:1022D00051D128683B4C810712D5400703D560686F
:1022E00040F4E06060602878000703D5606840F43F
:1022F000605060606068A96820F0F000084360608A
:102300002878C00728D06868012810D021680228E2
:1023100010D0890700292EDA616821F003010143FA
:102320006160FFF7ABFB804641F288390DE0216820
:102330008903EFE78901EDE7FFF7A0FBA0EB0801B8
:10234000494502D90320BDE8F0876068696800F05C
:102350000C00B0EB810FEFD1306800F00700B842FD
:102360000BD9306820F0070038433060306800F047
:102370000700B84201D00120E5E72878400705D5DD
:102380006068E96820F4E06008436060287800072E
:1023900006D56068296920F4605040EAC100606099
:1023A00000F038F86168084AC1F30311515CC84075
:1023B0000649086006480068FFF730FE0020C2E7C3
:1023C0000020024000100240004E0008440000209F
:1023D0003C0000200448054900684968044AC1F3EC
:1023E0000221515CC84070474400002000100240A8
:1023F000104E00080448054900684968044AC1F3C2
:10240000C221515CC84070474400002000100240C7
:10241000104E00080E4A51680E4801F00C03042BC0
:1024200011D0082B0FD10C48C1F38343C903C05C02
:102430000AD55168084AC1F34041921E515C054AD1
:102440005043B0FBF1F07047044948437047000027
:102450000010024000127A00DE4D000800093D0025
:102460002DE9F84F040070D02078C04DC00749D046
:102470006868C0F38100012807D06868C0F3810054
:10248000022809D16868C00306D52868800339D5B9
:1024900060680028E7D035E06068B0F5803F0BD079
:1024A00010B1B0F5A02F11D0286820F4803028603A
:1024B000286820F4802002E0286840F480302860FA
:1024C000606890B1FFF7DAFA06460AE0286840F43F
:1024D00080202860F0E700BFFFF7D0FA801B642857
:1024E00073D828688003F7D50CE0FFF7C7FA0646D3
:1024F00005E000BFFFF7C2FA801B6428F0D8286807
:102500008003F7D420789A4E80074FF001094FF0EE
:10251000000839D5686810F00C0F07D06868C0F360
:102520008100022809D16868C00306D428688007A2
:1025300014D52069012808D110E02069B0B1C6F88F
:102540000090FFF79BFA074605E00AE1FFF796FACD
:10255000C01B0228C4D828688007F7D5286861699D
:1025600020F0F80040EAC10028600DE0C6F80080C5
:10257000FFF784FA074604E0FFF780FAC01B022841
:1025800023D828688007F7D4207800072CD579480D
:10259000A169D9B1C0F80090FFF770FA074604E0CE
:1025A000FFF76CFAC01B02280FD8686A8007F7D5BE
:1025B00071484FF4FA510068B0FBF1F0009000BF91
:1025C0000098411E0091FAD20EE080E0C0F8008031
:1025D000FFF754FA074604E0FFF750FAC01B022841
:1025E00075D8686A8007F7D42078400760D5E86915
:1025F0000027C00008D4E86940F08050E861E8692D
:10260000012700F0805000905C480168C90513D490
:102610000168834641F480710160FFF72FFA82461A
:1026200006E000BFFFF72AFAA0EB0A0064284ED8A4
:10263000DBF80000C005F5D5E06801280AD008B134
:10264000052813D0286A20F001002862286A20F0AB
:10265000040002E0286A40F001002862E06841F2CC
:10266000883B98B1FFF70AFA82460BE0286A40F0EF
:1026700004002862EEE700BFFFF700FAA0EB0A01B2
:1026800059455AD8286A8007F6D50CE0FFF7F6F9C5
:10269000824605E0FFF7F2F9A0EB0A0159454CD854
:1026A000286A8007F6D41FB1E86920F08050E861FD
:1026B000E06988B36968C1F38101022944D0022826
:1026C000C6F8608004D0FFF7D9F9044638E034E05A
:1026D000FFF7D4F9074604E0FFF7D0F9C01B022842
:1026E0002BD828688001F7D4206AB0F5803F05D147
:1026F0006868A16820F4003008436860D4E90801E4
:102700000843696821F4741108436860C6F8609052
:10271000FFF7B4F9044606E025E000BFFFF7AEF985
:10272000001B022809D828688001F7D51BE000BFEC
:10273000FFF7A4F9001B022802D90320BDE8F88F97
:1027400028688001F4D40EE00128F7D06868226A76
:1027500000F48031914204D1616A00F47010884223
:1027600001D00120EAE70020E8E700000010024065
:1027700000004242800442424400002000700040B9
:1027800010B5401EB0F1807F01D3012010BD4FF085
:10279000E02460610F21601701F0AAFC0020A06115
:1027A00007202061002010BD7047704710B590F8D9
:1027B0003C20012A22D0012280F83C20CA688C6883
:1027C00022F4407222434C6822F4806222430C6857
:1027D00022F4006222430C6922F4805222434C69A5
:1027E00022F400522243C969002322F480420A43A2
:1027F00001684A6480F83C30002010BD022010BD02
:1028000070B590F83C20012A26D0012480F83C4085
:10281000022280F83D2003685A689D6822F0700605
:102820000A6832435A600D4B02689A4208D0B2F1EE
:10283000804F05D00A4B9A4202D00A4B9A4204D1EB
:10284000496825F080031943916080F83D400021DC
:1028500080F83C10084670BD022070BD002C01407D
:10286000000400400008004010B5040003D094F8B4
:102870003D0010B107E0012010BD002084F83C00AD
:10288000204600F01FF8022084F83D00211D20683A
:1028900001F0A4F9012084F8460084F83E0084F891
:1028A0003F0084F8400084F8410084F8420084F836
:1028B000430084F8440084F8450084F83D0000207B
:1028C00010BD000008B5114A01681148914208D1B5
:1028D000816941F400618161806900F400600090C9
:1028E00008BDB1F1804FFBD1C16941F00101C16167
:1028F000C069002200F00100009011461C20FFF783
:10290000D9FBBDE808401C20FFF7C6BB002C0140E6
:102910000010024090F83D10012901D001207047BD
:10292000022180F83D1000680B49884208D0B0F1C0
:10293000804F05D00949884202D00949884204D114
:10294000816801F00701062903D0016841F0010107
:102950000160002070470000002C0140000400408E
:102960000008004070B5044690F83C00002501289E
:1029700017D0012684F83C60022084F83D002068CE
:10298000826822F0770222F47F4282600868502831
:1029900038D00DDC20284FD005DC90B3102811D1A1
:1029A0004AE0022070BD302846D040280AD13BE0E2
:1029B00060282FD070280DD0B0F5805F03D0B0F51F
:1029C000005F12D0012584F83D60002084F83C00AF
:1029D000284670BDCB68D1E90121206801F047F994
:1029E0002068816841F0770109E0CB68D1E90121D5
:1029F000206801F03CF92068816841F480418160E1
:102A0000E1E719E0CA684968206801F0E5F950215A
:102A1000206806E0CA684968206801F0EEF9602184
:102A2000206801F02EF9CEE7CA684968206801F0F5
:102A3000D3F940212068F4E7226801461046F0E708
:102A400070472DE9F04104460068C66805694FF0FB
:102A50000007A90713D5B10711D5F91E016101209F
:102A60002077206880698007204602D0FFF7E8FFC2
:102A700004E000F0A5F8204600F037F92777680752
:102A800016D5700714D521686FF004000861022084
:102A900020772068806910F4407F204602D0FFF73D
:102AA000CFFF04E000F08CF8204600F01EF92777F5
:102AB000280715D5300713D521686FF00800086185
:102AC000042020772068C0698007204602D0FFF7E5
:102AD000B7FF04E000F074F8204600F006F927770D
:102AE000E80616D5F00614D521686FF010000861CD
:102AF000082020772068C06910F4407F204602D06B
:102B0000FFF79EFF04E000F05BF8204600F0EDF8D0
:102B10002777E80708D0F00706D021686FF001009A
:102B20000861204600F030F9280608D5300606D5A1
:102B300021686FF0800008612046FFF735FE6806C7
:102B400008D5700606D521686FF040000861204660
:102B500000F026F9A8060AD5B00608D521686FF05E
:102B6000200008612046BDE8F041FFF71EBEBDE829
:102B7000F081000000B585B0002100910191029123
:102B8000039100680B49884212D10B48816941F0DA
:102B9000040181618069694600F0040004904FF4EB
:102BA000E06000900220019003900448FEF770FE60
:102BB00005B000BD002C014000100240000801409B
:102BC000704770B5044690F83C0000260D46012879
:102BD0000FD0012084F83C006AB1042A1DD0082AD5
:102BE0002FD00C2A3FD00126002084F83C0030462C
:102BF00070BD022070BD206801F04CF8206881692A
:102C000041F0080181612068816921F0040181613E
:102C1000206881692A69114311E0206801F062F897
:102C20002068816941F4006181612068816921F433
:102C300080618161206881692A6941EA022181619C
:102C4000D2E7206801F07AF82068C16941F00801F4
:102C5000C1612068C16921F00401C1612068C169B6
:102C60002A69114311E0206801F094F82068C169D5
:102C700041F40061C1612068C16921F48061C161D2
:102C80002068C1692A6941EA0221C161ACE710B537
:102C9000040003D094F83D0010B107E0012010BDFE
:102CA000002084F83C00204600F01EF8022084F842
:102CB0003D00211D206800F091FF012084F84600AE
:102CC00084F83E0084F83F0084F8400084F8410016
:102CD00084F8420084F8430084F8440084F84500F6
:102CE00084F83D00002010BD7047704710B50446C1
:102CF000022249B104290ED0082913D094F84100CA
:102D0000012816D0012010BD94F83E000128F9D109
:102D100084F83E200FE094F83F000128F2D184F8B7
:102D20003F2008E094F840000128EBD184F84020CF
:102D300001E084F841200122206800F08BFF0F4958
:102D40002068884203D1426C42F400424264206809
:102D5000884208D0B0F1804F05D00949884202D09E
:102D60000849884204D1816801F00701062903D08F
:102D7000016841F001010160002010BD002C0140FC
:102D800000040040000800400349884202D1034883
:102D9000FEF7D0B870470000BC01002050000020B2
:102DA0007047704770470000F8B50168044608682E
:102DB000CA684B6910F00F0F4FF0000559D003F0AF
:102DC000010602F49077374365D0C10705D0D105DD
:102DD00003D5616C41F001016164410705D5D90754
:102DE00003D0616C41F002016164810705D5D90708
:102DF00003D0616C41F004016164010707D502F062
:102E00002001314303D0616C41F008016164616CC1
:102E100000293AD0800604D5900602D5204601F05C
:102E20002DF820684069616CC0F38010090700D458
:102E300060B3204600F0FBFF20684069400621D5C2
:102E40002068143050E8001F21F0400140E80012D3
:102E5000002AF5D1E06BA8B16D494163E06BFEF744
:102E6000B9FC002811D0E06B416B01B0BDE8F04027
:102E7000084783060FD593060DD52046BDE8F840D8
:102E800000F0FCBF2046FFF78DFFF8BD2046FFF79E
:102E900089FF6564F8BD266B2023012E7CD1C60610
:102EA0007AD5D60678D508684868009048694FF00A
:102EB0000206400640D5E16B086840680004000C3B
:102EC000E8D0A28D8242E5D9E085886920282DD0FE
:102ED00020680C3050E8001F21F4807140E8001297
:102EE000002AF5D12068143050E8001F21F00101BC
:102EF00040E80012002AF5D12068143050E8001F85
:102F000021F0400140E80012002AF5D184F8423057
:102F1000256320680C3050E8001F21F0100140E8C4
:102F20000012002AF5D1E06BFEF730FC6663A08D3D
:102F3000E18D401A81B22AE0A08DE18D401A81B264
:102F4000E08D0028A6D00029A4D022680C3252E8D7
:102F5000000F20F4907042E80007002FF5D12068A0
:102F6000143050E8002F22F0010240E80027002F23
:102F7000F5D184F84230256320680C3050E8002FEA
:102F800022F0100240E80023002BF5D166632046B2
:102F9000FFF707FFF8BDFFE705062BD5150629D576
:102FA00094F841002128F5D1A068B0F5805F01D1E7
:102FB0002069B0B1206A411C216221680078486014
:102FC000E08C401E0004000CE084E3D12068C1685E
:102FD00021F08001C1602068C16841F04001C160FA
:102FE000D8E7206A0088C0F308004860206A801C87
:102FF0002062E5E74006CDD55006CBD5CA6820460D
:1030000022F04002CA6084F8413000F015F9C1E7AF
:103010001F3E000870B5040004D094F8410000255C
:1030200010B106E0012070BD84F84050204600F049
:1030300023F8242084F841002068C16821F400515D
:10304000C160204600F07CFF2068016921F49041B6
:1030500001612068416921F02A0141612068C1684D
:1030600041F40051C1606564202084F8410084F877
:1030700042006563002070BD30B585B00024009427
:103080000194029403940068184988422CD118488E
:10309000C16941F48021C161C16901F480210491B9
:1030A000816941F0080181618069124D00F00800DA
:1030B00004904FF480600090022001900320039060
:1030C00069462846FEF7E4FBE814CDE900046946AA
:1030D00028460294FEF7DCFB002202212720FEF79F
:1030E000E9FF2720FEF7D8FF05B030BD00480040BB
:1030F00000100240000C014090F84230202B01D01B
:103100000220704721B11AB10023036300F074BF9D
:103110000120704770B500681649884229D1164CC5
:10312000002520466178154A00780A2907D00D2924
:1031300005D01F2814D21154401C207011E080B11A
:1031400015540E4801F061FCFDF74DFA0C4908607A
:103150000868FDF735FA02460B460AA000F0B8FFF2
:103160002570BDE8704004490122491C0948FFF759
:10317000C3BF70BD00480040340000207400002030
:10318000300000206D305F616E676C653A252E332C
:10319000660D0A00040200202DE9F843044690F869
:1031A0004100984616460D46202802D00220BDE870
:1031B000F88385B17EB100206064212084F841004D
:1031C000FEF75CFCA6848146E684A0682027B0F563
:1031D000805F02D003E00120E9E7206910B12E46AC
:1031E00000250EE000260CE08021204600F01FFFA5
:1031F000A8B9C6B116F8010B21684860E08C401EE2
:10320000E084E08C4B464FF00002CDF800800028AF
:10321000EAD14FF04001204600F009FF40B184F8A8
:1032200041700320C3E735F8020BC0F30800E3E761
:1032300084F841700020BAE77047FEE701684A69E8
:10324000D24352050FD46FF480624A61002140F8E6
:10325000301F202242738173026942F0040202612E
:103260000173012070470020704700002DE9F84FDE
:103270000446C06A1E4693460D4621680A6842F419
:1032800080620A60082807D0012805D010F5803F29
:1032900002D0206B112804D12068016841F48071AC
:1032A00001604FF001195B46002249462046009616
:1032B00000F0CCF84FF4007840B120680068C005F9
:1032C00001D5C4F840800320BDE8F88F2069DFF8FD
:1032D00084A0B0F5804F0FD00620216800EAD517F2
:1032E00047F0F000086133465A460AF106012046CD
:1032F00000F0F4F858BB03E0E8B240F001001CE035
:103300002168E8B2086133465A465146204600F02B
:10331000E5F8E0B92068416981690091016841F4EC
:10332000807101605B46002249462046009600F00D
:103330008DF80028C1D147F0F100216808613346BB
:103340005A465146204600F0C9F80028BCD001205A
:10335000BAE7000002000100F8B50446C06A1E4644
:103360000D461746082807D0012805D010F5803FE4
:1033700002D0206B122804D12068016841F48071CA
:103380000160134600224FF001112046009600F024
:103390005DF840B120680068C00502D54FF40070A8
:1033A00020640320F8BD2069B0F5804F0ED00620C0
:1033B000216800EAD51040F0F000086133463A4633
:1033C0000B49204600F08AF878B902E005F0FE00CB
:1033D00000E0E8B221680861054933463A46891F92
:1033E000204600F07BF80028DCD00120F8BD00006A
:1033F0000800010070B516460D4604461EE0204642
:10340000FFF71CFF08B1012070BD681C16D0FEF745
:1034100035FB801BA84200D885B920684069C043AD
:1034200040070BD5002044F8300F20216173A073B2
:10343000216941F0200121612073E4E7206840699F
:10344000C0434007DBD4002070BD00002DE9F047E9
:10345000984617460D460446C1F30746DDF820900E
:103460002AE000BFB8F1FF3F26D0FEF707FBA0EB34
:103470000901414502D8B8F1000F1DD12068012E85
:1034800016D0806925EA00000004000C12D000204C
:10349000B84211D1002044F8300F20216173A0738D
:1034A000216941F02001216120730120BDE8F087EE
:1034B0004069E7E70120EBE72068012E0AD0806928
:1034C00025EA00000004000C06D00020B842C9D054
:1034D0000020EBE74069F3E70120F7E72DE9F0472B
:1034E000984616460D4604464FF000094FF0200A54
:1034F000C1F3074723E020684069C043400515D465
:103500002068016841F40071016021686FF48060F7
:103510004861C4F8309084F83DA084F83E90216C56
:1035200041F00401216484F83C9021E0701C06D035
:10353000FEF7A4FAA0EB0800B04203D816B1012FA1
:103540001FD021E02068012F15D0806925EA0000F6
:103550000004000C18D000BF44F8309F84F80DA080
:1035600084F80E90216941F02001216184F80C90CB
:103570000120BDE8F087406925EA00000004000C46
:10358000EAD12068406901E02068806925EA0000EE
:103590000004000CAFD1ECE72DE9F0410025904686
:1035A0000E460446202728E04069C043C0060CD4DC
:1035B00054F8301B6FF01000486144F810596777D9
:1035C000A577206A2062257714E0FEF757FAA0EB72
:1035D0000800B04200D886B920684069C043400660
:1035E0000BD544F8305F6773A573206940F0200065
:1035F000206125730120BDE8F08120684169C9433D
:103600004906D1D40020F6E770B516460D460446AB
:103610001EE02046FFF712FE08B1012070BD681CB5
:1036200016D0FEF72BFA801BA84200D885B9206877
:103630004069C04300060BD5002044F8300F20211C
:103640006173A073216941F0200121612073E4E7D7
:1036500020684069C0430006DBD4002070BD000034
:1036600010B5FCF76EFF0549FCF7D6FD0449FCF7E1
:1036700005FEBDE810400349FCF7C8BD3333534095
:1036800000F07F453333D33F2DE9F047002607464E
:103690004FF47A7A354634460120FEF7E7F80121E7
:1036A0001348FDF731FE814601211248FDF72CFE3B
:1036B00080464846FFF7D4FF3146FCF755FD0646E5
:1036C0004046FFF7CDFF2946FCF74EFD641CA4B22F
:1036D00005465445E0D3084C30462146FCF7CEFD64
:1036E000B86021462846FCF7C9FDF860BDE8F087C0
:1036F000C0000020F000002000007A4470B516469B
:103700000A46044681681046FCF780FD6169FCF7B3
:1037100083FD206205463046E168FCF777FDA1692C
:10372000FCF77AFD014660622846FCF71DFD80F03B
:103730000040A06270BD70B504461546C4E9001291
:103740004FF07E50FCF79AFD2946FCF797FD60612B
:10375000A061E061002020626062A062A060E06081
:10376000206170BD2DE9F0410E460446FEF786F952
:103770000546A068281AFCF7E4FE1849FCF77EFD10
:10378000014610F1FF4F02D21548814202DC606809
:10379000BDE8F0811348814203DDC4E9016530468C
:1037A000F6E727683846FCF7DFFC01463846FCF7A9
:1037B00065FD074601464FF07E50FCF727FD314678
:1037C000FCF72AFD064638466168FCF725FD3146C0
:1037D000FCF7CAFCC4E90105DAE7000000007A44FE
:1037E00017B7D1389A99993E30B589B000241C2179
:1037F00068460794FCF7ADFC18481749012584601A
:1038000001600573047505614FF460214460C16176
:10381000FDF7E0FE08B1FDF7F5FB4FF4A02007909F
:1038200007A90E48FDF72EFE08B1FDF7EBFBCDE929
:1038300000458DF815400495029506948DF81440C6
:10384000694606480394FDF74BFC002801D0FDF7BC
:10385000D9FB09B030BD000000240140C0000020A9
:1038600030B587B01C216846FCF773FC1348002470
:1038700011498460016001250573047505614FF4E9
:1038800060214460C161FDF7A5FE08B1FDF7BAFBF8
:1038900000958DF815400195049502958DF814401A
:1038A000694606480394FDF71BFC002801D0FDF78C
:1038B000A9FB07B030BD000000280140F000002047
:1038C0002DE9F04385B0002420480094019402942F
:1038D0000394816941F020018161816901F0200137
:1038E0000491816941F004018161816901F0040161
:1038F0000491816941F0080181618069DFF850809D
:1039000000F008000490012240214046FEF7B0F884
:103910000122DFF84090D70339464846FEF7A8F861
:10392000402001250226CDE90005CDE90246694681
:103930004046FDF7ADFF00970396CDE90154694677
:103940004846FDF7A5FF05B0BDE8F0830010024032
:1039500000080140000C01400D4810B50B49016002
:103960000C49416000214FF480428160C0E903129C
:1039700041618161C1610162FEF786F8002803D0D0
:10398000BDE81040FDF73EBB10BD000000540040F4
:1039900020010020801A060010B596B000240F9474
:1039A00010941194129413941C2168461494FCF7FB
:1039B000D0FB202107A8FCF7CCFB31482F49C0E9F8
:1039C000001440F65F11C0E9024180210461C0E9A2
:1039D0000541FEF749FF08B1FDF714FB4FF4805095
:1039E0000F900FA92648FEF7BDFF08B1FDF70AFBAF
:1039F0002348FFF74CF908B1FDF704FB2020CDE97F
:103A0000130413A91E48FEF7FBFE08B1FDF7FAFAEE
:103A10006020CDE9000402940394049405940022EC
:103A2000694617480694FFF7CCF808B1FDF7EAFAA3
:103A3000042269461248FFF7C4F808B1FDF7E2FA1C
:103A4000082269460E48FFF7BCF808B1FDF7DAFA1C
:103A50000794089409944FF400500A94CDE90B4060
:103A600007A907480E94FEF7A1FE08B1FDF7CAFAB0
:103A70000348FFF77FF816B010BD0000002C01408E
:103A80007401002010B586B00024174800940194FA
:103A90000294039404944FF08041059401604721FF
:103AA000C0E9011440F2E731C0E9031480218161CB
:103AB000FEF7DAFE08B1FDF7A5FA4FF4805000904A
:103AC00069460948FEF74EFF08B1FDF79BFA0494DA
:103AD00004A905480594FEF793FE002801D0FDF7E0
:103AE00091FA06B010BD0000BC0100200C4810B5D2
:103AF0000A4901604FF4E1314160002181600C22EC
:103B0000C160C0E904128161C161FFF783FA002836
:103B100003D0BDE81040FDF775BA10BD0048004065
:103B200004020020FEE7FEE77047000010B5002108
:103B30000648FFF7DBF804210448FFF7D7F8BDE893
:103B4000104008210148FFF7D1B80000740100209F
:103B50007047FEF749BA30B593B028216846FCF7A4
:103B6000F8FA14210AA8FCF7F4FA002501200F95B1
:103B700010951195010412958DE8230004904FF4DF
:103B8000E010CDE90810022407946846FEF768FCAF
:103B900008B172B6FEE70AA90F2081E831004FF4A0
:103BA0008060CDE90D0502210AA8FEF77DFB08B172
:103BB00072B6FEE74FF4004011900F940FA8FEF785
:103BC000FDFA002801D072B6FEE713B030BD704791
:103BD0000148FEF736BF0000BC010020F0B50268C6
:103BE000194B1A4C1A4D4FF08047984205D0B842F5
:103BF00003D0A04201D0A84203D122F070064A6847
:103C00003243984205D0B84203D0A04201D0A84226
:103C100003D122F44074CA6822434C6922F0800226
:103C2000224302608A68C2620A688262984201D1B5
:103C300009690163012141610169C90703D0016973
:103C400021F001010161F0BD002C014000040040A1
:103C50000008004010B501F01F030121046A9940DB
:103C60008C430462016A9A401143016210BD10B591
:103C7000846842EA032224F47F440A432243826098
:103C800010BD826822F070020A4342F00701816091
:103C90007047000030B5036A026A22F00102026236
:103CA0004268846924F073050C682C4323F00205F4
:103CB0008B682B430A4DA8420BD123F00805CB6833
:103CC00022F440722B434D6923F0040315438A69A3
:103CD0002A434260846149684163036230BD000049
:103CE000002C014030B5026A036A23F0100303621E
:103CF000436884690D6824F4E64444EA05248D6829
:103D000022F0200242EA05120B4DA8420ED1CD68E6
:103D100022F0800242EA05124D6923F4406343EA2F
:103D200085038D6922F0400243EA85034360846184
:103D300049688163026230BD002C014030B5036ADE
:103D4000026A22F4807202624268C46923F400733A
:103D500024F073050C682C438D6843EA05230C4D51
:103D6000A8420ED1CD6823F4006343EA05234D69D0
:103D700022F4405242EA05128D6923F4806342EA3C
:103D800005124260C4614968C163036230BD00002E
:103D9000002C014030B5046A026A22F480520262AB
:103DA0004268C3690D6823F4E64343EA05238D683E
:103DB00024F4005444EA0534064DA84204D14D6968
:103DC00022F4804242EA85124260C361496801647C
:103DD000046230BD002C014010B5036A046A24F06F
:103DE00001040462846924F0F00444EA021423F01C
:103DF0000A020A438461026210BD10B5036A046AB4
:103E000024F010040462846923F0A00324F47044B5
:103E100044EA023243EA01118261016210BD10B529
:103E2000406A0021C185C184FEF7BCFF10BD016856
:103E30000C3151E8002F22F4907241E80023002B4E
:103E4000F5D10168143151E8002F22F0010241E858
:103E50000023002BF5D1016B012909D101680C3138
:103E600051E8002F22F0100241E80023002BF5D189
:103E7000202180F8421000210163704708B590F8B6
:103E80004210222901D0022008BD82684FF48053DD
:103E90009A4201D1016921B1816A9A421BD04AB18B
:103EA0000AE00268816A5268C2F308020A80816AE5
:103EB000891C08E0026972B10268526802F07F0250
:103EC0000A70816A491C8162C18D491E0904090C6E
:103ED000C18503D01BE002685268F1E70168CA6837
:103EE00022F02002CA600168CA6822F48072CA60A7
:103EF00001684A6922F001024A61202180F84210DB
:103F000000214163026B012A03D0FFF703F900206F
:103F100008BD016301680C3151E8002F22F0100246
:103F200041E80023002BF5D101680A68D20602D5CA
:103F30000A6849680091818DFEF733FFE7E70000CA
:103F400070B5044600680169E26821F440511143EC
:103F500001612169A0680843616908432168CA6852
:103F600041F20C639A430243CA6020684169A26926
:103F700021F44071114341611E492068884202D1F9
:103F8000FEF738FA01E0FEF725FA00EBC00101EB7D
:103F90000012606864218000B2FBF0F3B3FBF1F320
:103FA0006FF018067343B2FBF0F5B2FBF0F605EBC9
:103FB0008305322303EB0515B5FBF1F5B6FBF1F6EE
:103FC00005F0F00505EB0615B2FBF0F6B2FBF0F0DC
:103FD000B0FBF1F06FF01802504306EB800003EBEA
:103FE0000010B0FBF1F0216800F00F002844886059
:103FF00070BD00000038014081628285C2850021C9
:104000004164222180F84210016921B10168CA6827
:1040100042F48072CA6001684A6942F001024A6152
:104020000068C16841F02001C160002070472DE99F
:10403000F843984617460D460446089E24E0701C37
:1040400022D0FDF71BFDA0EB0800B0421AD8CEB17C
:104050002068C168490717D5802D15D0402D13D091
:104060000168C94309070FD4016800254068009022
:104070002046FFF7DCFE0820606484F840500120F1
:10408000BDE8F8830320FBE72068006835EA0000FC
:1040900004D00020B842D2D00020F1E70120F9E797
:1040A0000148FEF781BE000004020020FEE738B59B
:1040B0004FF0FF3441F001010094FDF7A9FD38BD38
:1040C00038B54FF0FF340094FDF7CAFE38BD00004C
:1040D0000FB4054B10B503A9044A029800F0FEF88E
:1040E00010BC5DF814FB0000354A000848000020B1
:1040F0000907090E002804DB00F1E02080F8001415
:10410000704700F00F0000F1E02080F8141D7047A8
:1041100001480068704700004C00002002E008C819
:10412000121F08C1002AFAD170477047002001E031
:1041300001C1121F002AFBD170470000014908602D
:10414000704700004C0000202DE9FF5F82B0002185
:10415000DDE90430020DDDF840B0034318D044F629
:104160001050A2F2FF3242431514119801281FD0BB
:10417000A5EB0B00401C5FEA000A4FF000064E4F13
:10418000DFF83891B046504615D5CAF1000413E067
:10419000119801244AA3012801D16FEA0B0102986A
:1041A000119AC0E90031C0E9024206B0BDE8F09FB3
:1041B000CBF10000DFE704460021404A491842EBFA
:1041C0000450CDE9001012E0E00707D032463B462C
:1041D00040464946FCF743F98046894632463B460D
:1041E00010461946FCF73BF906460F466410002CB2
:1041F000EAD1DDE90401DDE90023BAF1000F06DAB6
:10420000FCF72DF942464B46FCF729F905E0FCF78F
:104210005BFB42464B46FCF757FB04460E4600222A
:10422000284BFCF7D9FB03D84FF0FF30014607E0DD
:104230000022254B20463146FCF76AF8FCF7B3FB19
:10424000102409E0002C0ADB0A220023FCF708FAFC
:10425000039B30321A55641E50EA0102F2D1641CED
:10426000039AC4F111031444119A012A03D00122C4
:1042700008430DD10AE0084304D000204FF0110B91
:10428000119072E7A3EB0B056D1E0DE05B4504DD9D
:104290004FF0000205F1010504E003DA4FF00002DF
:1042A000A5F10105002AECD002981199C0E902316C
:1042B000C0E9004579E70000000014400000F03F2D
:1042C000300000000000F0430000E03F30380A28D2
:1042D00001D2012070470020704700002DE9FF4FF8
:1042E00095B09B468946064600250FE2252877D1E2
:1042F00000242746F84A0121059400E0044316F8FB
:10430000013F203B01FA03F01042F7D130782A2810
:1043100011D06FF02F033078A0F13002092A16D89F
:10432000059A44F0020402EB820203EB42021044BD
:10433000761C0590EFE759F8042B0592002A03DA62
:10434000504244F40054059044F00204761C307846
:104350002E2816D116F8010F44F004042A280DD097
:104360006FF02F023078A0F13003092B09D807EB4A
:10437000870302EB4303C718761CF3E759F8047B65
:10438000761C30786C280FD006DC4C2817D06828B3
:104390000DD06A2814D104E0742810D07A280FD1E7
:1043A0000DE044F400140AE044F4801401E044F405
:1043B00040147278824202D104F58014761C761C77
:1043C000307866280BD013DC582877D009DC002819
:1043D00075D04528F6D04628F4D047281AD19DE15B
:1043E00018E0632835D0642879D0652812D195E18A
:1043F000702873D008DC6728F1D069286FD06E2848
:104400000DD06F2806D1B5E073282CD0752875D053
:10441000782874D05A46179990476D1C75E1C4F3FB
:104420000250022809D003280DD0D9F80010042822
:104430000DD00D6009F1040967E1D9F80010EA1701
:10444000C1E90052F6E7D9F800100D80F2E70D70CF
:10445000F0E719F8041B8DF8001000208DF801001A
:10446000EA46012003E059F804AB4FF0FF30610742
:104470004FF0000102D40DE008F101018846B94275
:104480000FDA8045F8DB1AF808100029F4D108E0AB
:1044900008F1010188468142FADB1AF80810002968
:1044A000F6D105985B46A0EB080721463846179AD7
:1044B00000F094FA284400EB080507E04DE029E1FC
:1044C0000DE01AF8010B5A4617999047B8F1010808
:1044D000F7D25B4621463846179A13E142E00A229A
:1044E0000092C4F302524FF0000A022A08D059F891
:1044F00004CB032A4FEAEC710AD00DE029E02AE050
:1045000009F1070121F00702F2E802C1914609E032
:104510000FFA8CFC4FEAEC71042A03D14FFA8CFCA1
:104520004FEAEC71002907DA0A460021DCF1000CA1
:1045300061EB02012D2202E0220504D52B228DF829
:104540000420012203E0E20701D02022F7E7904691
:1045500059E00A2102E010220DE010214FF0000A7C
:1045600000910BE010224FF0000A44F004040827E9
:10457000009203E008224FF0000A0092C4F30252B6
:10458000022A05D059F804CB0021032A08D009E0FB
:1045900009F1070121F00702F2E802C1914605E0A6
:1045A0001FFA8CFC042A01D10CF0FF0C4FF000081C
:1045B000220728D5702806D0009B83F0100353EA09
:1045C0000A0305D00EE040228DF80420012208E005
:1045D0005CEA010206D030228DF804208DF8050037
:1045E00002229046009B83F0080353EA0A030AD193
:1045F0005CEA010201D1620705D530228DF8042062
:104600004FF001087F1E582804D034A003900EA854
:1046100002900DE036A0F9E753466046009AFCF799
:104620001FF884460398825C0298401E0290027034
:104630005CEA0100F0D1029806A9081A00F1200AEC
:10464000600702D524F4803400E00127574502DDDD
:10465000A7EB0A0000E0002000EB0A01009005989B
:104660004144401A0590E00306D45B462146179A60
:10467000059800F0B3F90544002706E001A85A4662
:10468000C05D179990476D1C7F1C4745F6DBE00322
:104690000CD55B462146179A059800F09FF9054412
:1046A00004E030205A46179990476D1C0099481E27
:1046B00000900029F5DC08E0029802995A4600783B
:1046C000491C0291179990476D1CBAF10001AAF19B
:1046D000010AF1DC65E100000928010030313233C4
:1046E000343536373839616263646566000000002E
:1046F0003031323334353637383941424344454618
:104700000000000000F058F90544761C30780028BD
:104710007FF4ECAD19B02846BDE8F08F620700D4F5
:10472000062709F1070222F0070CFCE80223E14604
:1047300003F000485FEA080C02D00FF2702C0DE085
:104740005FEA045C02D50FF2682C07E05FEAC47CE4
:1047500002D00FF2602C01E0AFF2700C4FF0FF3886
:1047600023F00043CDF850C065280CD006DC452866
:1047700009D046281DD047283DD13DE0662818D0F5
:1047800067287ED138E00021112F01DB112000E0E5
:10479000781CCDE9000106A90EA8FFF7D5FCDDE9DC
:1047A0000F010E9A03910021009207F1010A049172
:1047B0004DE04FF000400097CDE9011006A90EA88A
:1047C000FFF7C2FCDDE90F0203920E9B1199002254
:1047D000DDF80CA00093049211B9791C00EB010ADA
:1047E000B7EB0A0004D4C0F1FF3007F1010A0490CE
:1047F000AAEB0700019044E0012F00DA0127002115
:10480000112F01DD112000E03846CDE9000106A995
:104810000EA8FFF799FCDDE90F010E9A0391002124
:1048200004910092BA4621070CD40399514500DA4D
:104830008A46BAF1010F05DD009AAAF10101515C27
:10484000302908D0B84202DA10F1040F06DA01214B
:10485000CDE9011015E0AAF10101E9E7002805DC26
:10486000049901440491AAEB000102E0411C514566
:1048700000DD8A460499401A401C01904FF0004028
:104880000290200704D40198504501DBCDF8048044
:1048900000208DF84F0002980DF14F07B0F1004F46
:1048A00025D02B200E9002984FF0020800280CDA39
:1048B000404202902D200E9007E00A210298FBF75B
:1048C000B9FE3031029007F8011DB8F10001A8F1DE
:1048D0000108F2DC02980028EFD1791E0E980870CA
:1048E000307800F0200040F0450007F8020D12A8D3
:1048F000C01B00F107081498007800B1012000EBFC
:104900000A01019801EBE07105984144401A401EEC
:104910000590E00306D45B462146179A059800F0FF
:104920005DF805441498007818B15A4617999047D5
:104930006D1CE00324D55B462146179A059800F0CC
:104940004DF805441CE00498002807DBDDE903016D
:10495000884203DD0098405C179901E017993020E8
:104960005A469047049805F10105401C04900198AF
:10497000401E019004D12E205A46179990476D1C75
:10498000BAF10001AAF1010ADDDC05E017F8010B1C
:104990005A46179990476D1CB8F10001A8F101081B
:1049A000F4DC5B462146179A0598ABE62D00000023
:1049B0002B000000200000002DE9F04104460025F6
:1049C0001E461746880404D405E039462020B04727
:1049D0006D1C641EF9D52846BDE8F0812DE9F04133
:1049E000044600251E469046C80301D5302700E046
:1049F0002027880404D505E041463846B0476D1CA1
:104A0000641EF9D52846BDE8F08130B583B0044670
:104A1000FFF77EFB05460020CDE900000246214657
:104A20006846FBF78AFE2846FFF788FBDDE90001B0
:104A300003B030BD13B54FF47A73012269460248C2
:104A4000FEF7AAFB00981CBD040200201CB5FDF770
:104A5000D3FAFFF780F8FEF733FFFEF77DFFFFF78D
:104A600045F8FEF799FFFFF70DF8FEF7BDFEFEF7DC
:104A7000F7FE1B48FDF74EFF1A48FCF7C5FA1A4827
:104A8000FCF7C2FA1748FCF7A3FC1748FCF74CFCEC
:104A9000FFF74CF8154A16491648FEF74CFE16A0CB
:104AA000FFF716FB1348FEF7EFFD124EF068FBF719
:104AB00087FD04460D46B068FBF782FD02460B46B3
:104AC00018A0CDE90045FFF703FB4FF47A70FCF71F
:104AD000CDFE23492148086000F044F8FEE70000BD
:104AE00074010020C0000020F000002000004842B7
:104AF0000AD7A33C94000020537461727420636150
:104B00006C6962726174696E672074686520637590
:104B10007272656E742073656E736F722E2E2E0D19
:104B20000A00000043616C6962726174696F6E20F3
:104B3000636F6D706C6574653A204F66667365745B
:104B4000413D252E3366562C204F666673657442B0
:104B50003D252E3366560D0A00000000000040413E
:104B60000C0000202DE9FC41364D4FF49677364C71
:104B700036A0FFF7ADFA3BA0FFF7AAFA3EA0FFF779
:104B8000A7FA00221146A846284600F0A9F83846A0
:104B9000FCF76CFE606AFBF713FD05460E46206AC3
:104BA000FBF70EFDCDE9005602460B4634A0FFF799
:104BB0008FFA606A20F00041206A20F00040FBF785
:104BC0002FFD01D234A000E037A0FFF781FA0022C8
:104BD0001146104600F084F83846FCF747FE36A030
:104BE000FFF776FA00224146104600F079F8384681
:104BF000FCF73CFE606AFBF7E3FC05460E46206AC4
:104C0000FBF7DEFCCDE9005602460B461CA0FFF781
:104C10005FFA206A20F00041606A20F00040FBF754
:104C2000FFFC01D226A000E029A0FFF751FA0022E4
:104C30001146104600F054F8BDE8FC4109A0FFF70A
:104C400047BA00000000C040940000204661737421
:104C500020506861736520446574656374696F6E84
:104C60000D0A00003D3D3D3D3D3D3D3D3D3D3D3D51
:104C70003D3D3D3D0D0A0000412E2E2E0D0A000047
:104C800049613D252E3366412C2049623D252E3356
:104C900066410D0A000000006475692041444331FB
:104CA000202D20410D0A000063756F2041444331DF
:104CB000202D20420D0A0000422E2E2E0D0A00004B
:104CC0006475692041444332202D20420D0A0000C2
:104CD00063756F2041444332202D20410D0A0000AE
:104CE0002DE9F047DFF8DC80374C15460E460746C5
:104CF000404501D3002704E0E168FBF791FC00D2B6
:104D0000E768B9464746BE4201D3002605E0304673
:104D1000E168FBF785FC00D2E668BD4201D30025BF
:104D200005E02846E168FBF77BFC00D2E568E16816
:104D300048468A46FBF7A2FADFF890804146FBF727
:104D40006BFAFBF710FC0746206251463046FBF732
:104D500095FA4146FBF760FAFBF705FC06466062F0
:104D600051462846FBF78AFA4146FBF755FAFBF70E
:104D7000FAFB0546A0623846FBF7E8FB144FDFF864
:104D800054803A464346FBF76AFBFBF700FC124CA3
:104D9000216848633046FBF7D9FB3A464346FBF7A8
:104DA0005EFBFBF7F4FB216888632846FBF7CEFB2C
:104DB0003A464346FBF753FBFBF7E9FB2168C86320
:104DC000BDE8F0870000808000000020000016454C
:104DD000CDCCCCCCCCCCEC3F740100200102020342
:104DE0000405060708090A0B0C0D0E0F101001022E
:104DF00002030405060708090A0B0C0D0E0F10101C
:104E0000000000000000000001020304060708097A
:104E10000000000001020304DDDDDDDDDCBBBBDDE5
:104E2000DDDDDDDDDDDDDDDD98888888888888884A
:104E3000777777777788888885555556666666666A
:104E40006666666666688888833333322222222249
:104E5000222222222228888D784E0008000000207D
:104E6000500000001C410008C84E000850000020FF
:104E7000000600002C4100080000000000000000B7
:104E80000000000000000000000000000000000022
:104E90000000000000000000000000000000000012
:104EA0000000000000000000000000000000000002
:104EB00001000000100000000000000000127A0055
:084EC0000000000000000000EA
:04000005080000ED02
:00000001FF
